:020000040800F2
:1000000000000220B1170008F9170008F9170008CE
:10001000F9170008F9170008F91700080000000098
:10002000000000000000000000000000F9170008B8
:10003000F917000800000000F9170008F917000878
:10004000F9170008F9170008F9170008F917000850
:10005000F9170008F9170008F9170008F917000840
:10006000F9170008F9170008F9170008F917000830
:10007000F9170008F9170008F9170008F917000820
:10008000F9170008F9170008F9170008F917000810
:10009000F9170008F9170008F9170008F917000800
:1000A000F9170008F9170008F9170008F9170008F0
:1000B000F9170008F9170008F9170008F9170008E0
:1000C000F9170008F9170008F9170008F9170008D0
:1000D000F9170008F9170008F9170008510400087B
:1000E000F9170008F9170008F9170008F9170008B0
:1000F000F9170008F9170008F9170008F9170008A0
:10010000F9170008F9170008F9170008F91700088F
:10011000F9170008F9170008F9170008F91700087F
:10012000F9170008F9170008F9170008F91700086F
:10013000F9170008F9170008F9170008F91700085F
:10014000F9170008F9170008F9170008F91700084F
:10015000F9170008F9170008F9170008F91700083F
:10016000F9170008F9170008F9170008F91700082F
:10017000F9170008F9170008F9170008F91700081F
:08018000F9170008F917000847
:1001880010B5054C237833B9044B13B10448AFF3C9
:1001980000800123237010BD5804002000000000D7
:1001A800201B0008084B10B51BB108490848AFF3DD
:1001B80000800848036803B910BD074B002BFBD02B
:1001C800BDE81040184700BF000000005C04002094
:1001D800201B00085404002000000000154B002BD1
:1001E80008BF134B9D46A3F5803A00218B460F4666
:1001F8001348144A121A01F035FB0F4B002B00D09C
:1002080098470E4B002B00D098470020002104008F
:100218000D000D48002802D00C4801F0E7FB01F062
:10022800F9FA2000290001F07DFA01F0E3FA00BF95
:1002380000000800000000000000000000000000AE
:100248005804002088060020F5190008011A000843
:1002580010B4064C064923780648DBB25A1CD2B2C1
:100268002270C95C5DF8044B00F00EBD74040020D8
:10027800800400200048004010B5064A064854781B
:10028800E4B2631CDBB2537000F002FD034B185557
:1002980010BD00BF740400200048004088050020FD
:1002A800034B9A781B789A4200D0D1E7704700BF79
:1002B8007404002008B58021084800F0A9FD58B151
:1002C800074B99781A78914206D09A781B789A4207
:1002D80002D0BDE80840BBE708BD00BF00480040A9
:1002E80074040020034A5378D2789B1A013300D053
:1002F800C2E7704774040020034B5878DB78C01AB3
:1003080018BF0120704700BF740400200449054845
:10031800CB78DBB25A1CD2B2CA70C05C704700BF3F
:1003280074040020880500200A4A937811785B1A23
:10033800FF2B0DD001330BD010B49378064CDBB2F1
:10034800591CC9B29170E05401205DF8044B704704
:100358000020704774040020800400202DE9F0413B
:10036800012188B04FF4802000F0FEFE324F334E5A
:100378000121022000F0CEFE02A801F0BBF8002403
:1003880001254FF0020802A938464FF40063029392
:100398008DF80C808DF80D808DF80E408DF80F507B
:1003A80001F056F84FF4806302A9384602938DF89D
:1003B8000C808DF80D808DF80E408DF80F5001F0EF
:1003C80047F8384607220B2101F0D4F838460722AF
:1003D8000A2101F0CFF84FF416520C23304604A935
:1003E8000492ADF81A30ADF81440ADF81640ADF8E7
:1003F8001840ADF81C4000F08DFB2946304600F04F
:100408000FFC272301A88DF804308DF805408DF8DE
:1004180006408DF8075000F0BFFA2A46304640F2F1
:10042800266100F0D7FC2A46304640F2255100F0FC
:10043800D1FC08B0BDE8F08100040240004800404B
:1004480062B6FFF78BBF00BF08B540F226611148BE
:1004580000F0E8FC78B940F225510E4800F0E2FCC3
:1004680000B908BD0C4A5378D2789B1A01330FD0D3
:10047800BDE8084000E740F22661064800F0F8FCB5
:10048800054B9A781B789A42E5D0FFF7E1FEE2E740
:1004980008BD00BF004800407404002082B00190ED
:1004A800019B5A1E0192002BFAD102B0704700BF7F
:1004B80010B504462046FFF737FF0028FAD010BDD4
:1004C80001700120704700BF0B7810B45BB1024681
:1004D80002F8013B11F8013F141A002BF8D120460D
:1004E8005DF8044B70471C46F9E700BF092B70B54F
:1004F8001E4602F1FF35044613D8002D1BDD0B46BE
:10050800411904F8013BA142FBD110460B4BA3FB58
:100518000623DB0803EB8303A6EB430330330B709E
:1005280070BD064BA3FB0623DB082A46FFF7DEFF58
:1005380021180130EAE701460120E7E7CDCCCCCC11
:10054800F8B5002B04460F4627DB092B1E4602F19F
:10055800FF3219DC002A37DD11462546013905F836
:10056800017BFBD1012AB8BF0122002B144426DBF2
:10057800501C164BA3FB0623DB0803EB8303A6EBF7
:10058800430330332370F8BD104BA3FB0653DB083D
:10059800FFF7D6FF04440130EBE75E42092E02F173
:1005A800FF3508DD094BA3FB0623DB082A465B421F
:1005B800FFF7C6FFEEE7023A002ACDDC00222D2322
:1005C80004F8013B901CD4E70120D2E7CDCCCCCC79
:1005D8002DE9F04182B0551E089E5FEA161E0446BA
:1005E80098461ED1002D24DD0F46431904F8017BDF
:1005F800A342FBD1104606F00F06092E0CD9B8F11C
:10060800000F04D157361E7002B0BDE8F0813736AE
:100618001E7002B0BDE8F08130361E7002B0BDE831
:10062800F081CDF800E02A46FFF7D2FF2318013009
:10063800E1E703460120DEE72DE9F0410F4682B0ED
:100648009E46064608B100230370002513785BB167
:10065800BD4280F09780252B0ED00132337013787D
:1006680001350136002BF3D1AF4240F28B8028468A
:10067800337002B0BDE8F0815178252935D0302992
:1006880038D00B46541CA3F13002092A4FF0200140
:1006980036D8002202EB820203EB420214F8013F33
:1006A800A3F13000303A092802F0FF02F2D91046CF
:1006B8002844874238BF7A1BA3F1580338BFD2B207
:1006C800202B66D8DFE803F05965656565656565C3
:1006D8006565655147656565654765656565656512
:1006E80065656538652E65651F0031700232013514
:1006F8000136ABE79378941CA3F13002092AC8D9D4
:1007080000200246D4E7DEF80030009300230EF103
:1007180004083046FFF75CFFC6460346621C1E44C9
:10072800054493E7DEF8003030460EF10408FFF781
:10073800DDFEC6460346F1E7DEF800100B780EF141
:10074800040E5BB3324602F8013B11F8013F901BDF
:10075800002BF8D1E1E7DEF8003030460EF104084E
:10076800FFF7EEFEC6460346D8E7DEF800303370E2
:1007780001230EF1040E1846D0E7DEF8003000938E
:100788000123C4E70023681E06F8013C02B0BDE857
:10079800F0814FF0FF3002B0BDE8F0811846BDE7A8
:1007A8000CB400B583B004AB53F8042B0193FFF7E6
:1007B80043FF03B05DF804EB02B0704713460A46E6
:1007C8006421FFF739BF00BF0EB400B582B003AB98
:1007D800642153F8042B0193FFF72EFF02B05DF854
:1007E80004EB03B0704700BF38B50A4B1B689A6822
:1007F8008A4202D0DB68994208D10546C4B2204635
:10080800FFF792FD0028FAD0284638BD4FF0FF3098
:1008180038BD00BF5004002070B50A4B04461B6861
:1008280000789E6850B1002503E014F8010F0135E7
:1008380028B13146FFF7D8FF431CF6D170BD2846D2
:1008480070BD00BF5004002070B50446007858B150
:100858000E46002503E014F8010F013528B1314692
:10086800FFF7C2FF431CF6D170BD284670BD00BF1C
:10087800F0B5174D96460F4606460FCDA3B06C4609
:100888000FC40FCD0FC42B6823603A46734609A8DE
:100898006421FFF7D1FE632810DC9DF8240058B1CD
:1008A80009AC002503E014F8010F013568B13146A1
:1008B800FFF79AFF431CF6D123B0F0BD054B1B6828
:1008C8006846D968FFF7C0FFFEE7284623B0F0BDA9
:1008D800F41A000850040020034B1B680A4601461E
:1008E8009868FFF7C5BF00BF500400200FB410B5CB
:1008F800094B82B004AA1B6852F8041B986801923D
:10090800FFF7B6FF0446FFF7D5FC204602B0BDE866
:10091800104004B0704700BF500400200EB400B56A
:1009280082B003AA52F8041B0192FFF7A1FF02B09C
:100938005DF804EB03B07047044A05491368002BBF
:1009480008BF0B4618441060184670477C04002006
:10095800880600204FF0FF30704700BF4FF0FF308F
:10096800704700BF4FF400534B600020704700BF32
:1009780001207047002070470020704710467047DC
:10098800FEE700BF40F0BF60024B40F40030D86083
:10099800704700BF00ED00E0C3785BB903781848E2
:1009A8005A09203203F01F03012101FA03F340F82A
:1009B80022307047134BF0B4D968477882780478AE
:1009C8000F4EC943C1F30221C1F10405EDB20F2353
:1009D80007FA05F50B41EDB213402B4304F16042D1
:1009E80002F561421B01DBB282F800330378012271
:1009F80003F01F015B098A4046F82320F0BC7047CA
:100A080000E100E000ED00E021F0604121F07F010D
:100A1800014B08439860704700ED00E0044A1369F1
:100A280019B923EA00001061704718431061704734
:100A380000ED00E0044A136804280CBF43F00403E7
:100A480023F004031360704710E000E008B52B4B57
:100A5800984219D02A4B984220D02A4B984229D044
:100A6800294B984232D0294B98423BD0284B984288
:100A780000D008BD0121202000F0CAFB0021202061
:100A8800BDE8084000F0C4BB0121102000F0C0FB05
:100A980000211020BDE8084000F0BABB01214FF446
:100AA800003000F0A7FB00214FF40030BDE80840FB
:100AB80000F0A0BB01214FF4802000F09BFB002137
:100AC8004FF48020BDE8084000F094BB01214FF4AA
:100AD800002000F08FFB00214FF40020BDE8084003
:100AE80000F088BB01214FF4801000F083FB002147
:100AF8004FF48010BDE8084000F07CBB00100140B6
:100B08000044004000480040004C004000500040B5
:100B180000140140028A0B89F0B592B2CF888E8802
:100B2800044622F440523A4348890D468989228274
:100B3800A289334392B2034322F4B05222F00C024A
:100B48009BB21343A381A38A9BB223F440730B4344
:100B580085B0A382684600F067FA1D4B9C4228D0F6
:100B680003F580639C4224D0029AA389A18913F4D7
:100B7800004F2B6802EB820214BF5B009B0002EB64
:100B88008202B2FBF3F0134AA2FB00356D0964231D
:100B9800090405FB13034FEA05150CD41B01323376
:100BA800A2FB0323C3F343132B439BB2238105B05A
:100BB800F0BD039AD9E7D9003231A2FB0131C1F364
:100BC800421242EA05039BB2238105B0F0BD00BF83
:100BD800001001401F85EB5100234FF416510C22E1
:100BE800016042818380C38003818381704700BF95
:100BF80030B44A880D888C88038AC9882A432243DE
:100C08000A439BB292B223F470631343038230BC4D
:100C1800704700BF0023038043808380C3807047F0
:100C2800838929B923F400531B041B0C8381704763
:100C38009BB243F400538381704700BF038B03F4D6
:100C48007F430383038B9BB219430183704700BF23
:100C5800838919B9C3F30E03838170476FEA43434D
:100C68006FEA53439BB28381704700BF838A29B9D7
:100C780023F400631B041B0C838270479BB243F46C
:100C880000638382704700BFC1F308018180704709
:100C98008088C0F308007047038A23F00F031B0401
:100CA8001B0C0382038A9BB219430182704700BF61
:100CB800838929B923F002031B041B0C8381704725
:100CC8009BB243F002038381704700BF838923F4FA
:100CD80000631B041B0C838183899BB219438181A8
:100CE800704700BF038A23F020031B041B0C0382F8
:100CF800038A9BB219430182704700BF038A29B94E
:100D080023F480431B041B0C038270479BB243F4FB
:100D180080430382704700BF83899BB243F001037D
:100D280083817047838A29B923F008031B041B0CAD
:100D3800838270479BB243F008038382704700BFE9
:100D4800038BDBB20383038B9BB243EA012101834C
:100D5800704700BF838A29B923F020031B041B0CAA
:100D6800838270479BB243F020038382704700BFA1
:100D7800838A29B923F010031B041B0C8382704754
:100D88009BB243F010038382704700BF838A23F02D
:100D980004031B041B0C8382838A9BB21943818240
:100DA800704700BF838A29B923F002031B041B0C78
:100DB800838270479BB243F002038382704700BF6F
:100DC800838A9BB21AB923EA0101818270471943C9
:100DD8008182704710B401F01F04C1F3421101234E
:100DE800012903FA04F311D002290CBF1030143082
:100DF80032B902685DF8044B22EA030303607047C6
:100E080002685DF8044B1343036070470C30EFE74A
:100E18000388194214BF012000207047C94389B2D2
:100E280001807047C1F3421210B4012301F01F047E
:100E3800012A03FA04F317D0022A0CBF028A828A15
:100E480092B21340028892B253B10123090A03FAFD
:100E580001F10A4214BF184600205DF8044B7047A0
:100E680018465DF8044B7047828992B21340E9E74F
:100E7800090A012303FA01F1C94389B201807047C5
:100E88000A4B0B481A68002142F001021A60996067
:100E98001A6822F0847222F480321A6058601A6844
:100EA80022F480221A60D960704700BF00380240DF
:100EB80010300024024B00221A701870704700BFCF
:100EC8000238024082B000230A4A019302E0B3F5D7
:100ED800A06F08D0136813F4003F019B03F10103CE
:100EE8000193019BF3D0034B1868C0F3404002B054
:100EF800704700BF00380240034A136823F0F80324
:100F080043EAC0001060704700380240014B186087
:100F1800704700BF00004742064B002201281A70A4
:100F28001A7005D0042802D105221A70704770473C
:100F38001870704770380240014B1860704700BF46
:100F4800800E474230B4029C064D40EA04600143DB
:100F58005B08013B41EA821242EA0340686030BC08
:100F6800704700BF00380240014B1860704700BF4F
:100F7800600047420907034B41EA8010C3F8840028
:100F8800704700BF00380240014B1860704700BF2F
:100F980068004742014B1860704700BF4C00474249
:100FA800034A936823F0EC63194308439060704741
:100FB80000380240034A936823F0784319430843F2
:100FC8009060704700380240034A936823F0030397
:100FD80018439060704700BF00380240024B986881
:100FE80000F00C00704700BF00380240034A9368C5
:100FF80023F0F00318439060704700BF00380240A8
:10100800034A936823F4E05318439060704700BF85
:1010180000380240034A936823F4604343EAC0005F
:10102800906070470038024010B4214CA36803F068
:101038000C03042B1BD0082B1CD01E4B03601C4A2E
:101048001D499468C4F303140C5DE340436094683D
:10105800C4F382240C5D23FA04F4846092685DF87A
:10106800044BC2F342328A5CD340C3607047134BCF
:101078000360E4E76368616813F4800F636818BF6E
:101088000E4C01F03F020CBF0A49B4FBF2F1C3F366
:10109800881308BFB1FBF2F101FB03F2044B5B6854
:1010A800C3F3014301335B00B2FBF3F30360C6E70C
:1010B800003802400024F4000400002040787D013C
:1010C80000F44073B3F5407F09D108498B6820F0DC
:1010D800704223F4F81322F4407213438B60034ADE
:1010E800136FC0F30B0018431067704700380240B5
:1010F800014B1860704700BF3C0E4742014B186017
:10110800704700BF400E4742014B1860704700BF50
:101118005C01474229B9054A136B23EA00001063B2
:101128007047024B1A6B104318637047003802402F
:1011380029B9054A536B23EA000050637047024BF4
:101148005A6B1043586370470038024029B9054A62
:10115800936B23EA000090637047024B9A6B10432D
:10116800986370470038024029B9054A136C23EA8E
:10117800000010647047024B1A6C104318647047E3
:101188000038024029B9054A536C23EA000050642C
:101198007047024B5A6C104358647047003802403D
:1011A80029B9054A136923EA000010617047024B08
:1011B8001A691043186170470038024029B9054A76
:1011C800536923EA000050617047024B5A69104383
:1011D800586170470038024029B9054A936923EAE3
:1011E800000090617047024B9A69104398617047FC
:1011F8000038024029B9054A136A23EA0000106240
:101208007047024B1A6A1043186270470038024050
:1012180029B9054A536A23EA000050627047024B15
:101228005A6A1043586270470038024029B9054A83
:10123800136D23EA000010657047024B1A6D1043C6
:10124800186570470038024029B9054A536D23EAEA
:10125800000050657047024B5A6D1043586570473F
:101268000038024029B9054A936D23EA00009065C9
:101278007047024B9A6D10439865704700380240DA
:1012880029B9054A136E23EA000010667047024B1D
:101298001A6E1043186670470038024029B9054A8B
:1012A800536E23EA000050667047024B5A6E104393
:1012B800586670470038024029B9054A137823EA6E
:1012C800000010707047024B1A781043187070476E
:1012D8000D3802404309012B0BD0022B094B0CBFE0
:1012E8001B6F5B6F00F01F0023FA00F000F0010095
:1012F8007047044B1B6800F01F0023FA00F000F051
:101308000100704700380240024A536F43F080736F
:101318005367704700380240034BDB68184214BF1C
:1013280001200020704700BF00380240014B1870B0
:10133800704700BF0E38024008B53C4B984224D095
:101348003B4B98422BD03B4B984232D03A4B984279
:1013580039D03A4B984240D0394B984247D0394B14
:1013680098424ED0384B984255D0384B984200D0CE
:1013780008BD01214FF48070FFF712FF00214FF4E0
:101388008070BDE80840FFF70BBF01210846FFF752
:1013980007FF00210120BDE80840FFF701BF012138
:1013A8000220FFF7FDFE00210220BDE80840FFF7FC
:1013B800F7BE01210420FFF7F3FE00210420BDE859
:1013C8000840FFF7EDBE01210820FFF7E9FE0021E4
:1013D8000820BDE80840FFF7E3BE01211020FFF711
:1013E800DFFE00211020BDE80840FFF7D9BE01212B
:1013F8002020FFF7D5FE00212020BDE80840FFF798
:10140800CFBE01214020FFF7CBFE00214020BDE8E0
:101418000840FFF7C5BE01218020FFF7C1FE00216B
:101428008020BDE80840FFF7BBBE00BF00000240B7
:101438000004024000080240000C02400010024074
:101448000014024000180240001C02400020024024
:1014580000222DE9F0471346D1F800E001274FF0AC
:10146800030C04E00133102B02F1020229D007FA21
:1014780003F434EA0E05F5D1D0F800800E790CFAA1
:1014880002F5ED4308EA0508C0F80080D0F800909E
:1014980006FA02FA013E4AEA0909012E0CFA02F894
:1014A800C0F800900FD9C568CC7925EA0805C56051
:1014B800C568944001332C43102BC46002F102022A
:1014C800D5D1BDE8F087866891F8059035408560EC
:1014D80086688D7909FA02F949EA0606866046683F
:1014E80026EA04044460466805FA03F4A4B23443C7
:1014F8004460D8E700234FF6FF720260037143711E
:101508008371C371704700BF82B04FF48033019379
:10151800019B0B430193019BC361C161019BC361A3
:10152800C3690193C369019302B070470369194203
:1015380014BF012000207047006980B2704700BFC7
:101548004369194214BF012000207047406980B2E6
:10155800704700BF01837047418370470AB94183D0
:1015680070470183704700BF416170474369594024
:1015780041617047CB0800EB830001F0070110B40C
:101588008900046A0F238B4024EA03030362036A79
:101598005DF8044B8A4042EA03010162704700BFCC
:1015A800501B0008000000205404002058040020AC
:1015B800880600203849394BD1F88820384842F449
:1015C8007002C1F888201A68002142F001021A60EE
:1015D80099601A6822F0847222F480321A60586086
:1015E8001A6882B022F480221A60D96000910191B1
:1015F8001A6842F480321A601A4603E0009BB3F579
:10160800A06F09D0136803F400330193009B0133E2
:101618000093019B002BF1D0204B1B6813F400337F
:1016280018BF01230193019B012B05D01A4B4FF0E2
:1016380000629A6002B07047184B1A491A6C1A482F
:1016480042F080521A640A6842F480420A609A683A
:1016580042F090029A609A689A609A689A60586014
:101668001A6842F080721A601A4611680B4B890199
:10167800FBD50E4A4FF4C06111609A6822F003024C
:101688009A609A6842F002029A601A46936803F0D8
:101698000C03082BFAD1C9E700ED00E0003802403E
:1016A800103000240070004019544007003C0240EC
:1016B8001848836803F00C03042B28D0082B09D0A2
:1016C800154B144A15499268C2F303128A5CD34039
:1016D8000B6170474368416813F4800F436818BF73
:1016E8000F4801F03F020CBF0B49B0FBF2F1C3F306
:1016F800881308BFB1FBF2F101FB03F2054B5B68ED
:10170800C3F3014301335B00B2FBF3F3D9E7044BA6
:10171800D7E700BF003802400024F400140000207E
:1017280040787D01F8B5FFF745FF62B6FEF716FE73
:1017380001210820FFF7EEFC154B1648164C174EF2
:101748004FF47041012219601A71194600220327CB
:101758005F7105469A71DA71FFF77AFE40F2D2415D
:101768000F48FFF7C3F827466B6983F400436B61A2
:101778006278E3789A42F7D0FB780A48DBB25A1CC1
:10178800D2B2F15CFA70FFF7B1F8FEF793FDEBE720
:1017980080050020000C0240740400208805002009
:1017A800CC1A0008E81A0008002103E00B4B5B582C
:1017B800435004310A480B4B42189A42F6D30A4A5E
:1017C80002E0002342F8043B084B9A42F9D3FFF7A2
:1017D800F1FE00F01FF8FFF7A5FF7047501B000847
:1017E800000000205404002058040020880600202F
:1017F800FEE7000008B50021044600F08BF8044B12
:101808001868C36B03B19847204600F093F900BFEE
:101818001C1B000870B50F4E0F4D761BB61018BF75
:10182800002405D0013455F8043B9847A642F9D165
:101838000A4E0B4D761B00F071F9B61018BF002444
:1018480006D0013455F8043B9847A642F9D170BD3B
:1018580070BD00BF441B0008441B00084C1B000857
:10186800441B000870B4840746D0541E002A41D097
:10187800CDB2034602E0621EE4B3144603F8015BEE
:101888009A07F8D1032C2ED9CDB245EA05250F2C9D
:1018980045EA054519D903F110022646103E0F2ED8
:1018A80042F8105C42F80C5C42F8085C42F8045CB0
:1018B80002F11002F2D8A4F1100222F00F0204F093
:1018C8000F041032032C13440DD91E462246043A45
:1018D800032A46F8045BFAD8221F22F003020432D6
:1018E800134404F003042CB1C9B21C4403F8011BCF
:1018F800A342FBD170BC704714460346C2E700BF41
:10190800024B13B1024800F071B8704700000000A4
:10191800011A00082DE9F04F324B85B01B6802937D
:1019280003F5A47301900E460393029BD3F8487104
:101938003FB3DDF80CA04FF00109D3467C68651E63
:101948000ED4013407EB84044FF00008E6B1D4F854
:1019580000319E4218D0013D6B1CA4F10404F5D15E
:10196800214B73B17B68002B36D13B68002B34D0F8
:101978003846CBF80030AFF30080DBF80070002F5A
:10198800DCD105B0BDE8F08F7B682268013BAB4233
:101998000CBF7D60C4F80080002ADCD0D7F888111D
:1019A800D7F804A009FA05F30B420FD0D7F88C1129
:1019B8000B420DD1D4F88010019890477B685345AD
:1019C800B3D1DBF80030BB42C5D0AEE79047F5E7AE
:1019D800D4F880009047F1E73B68BB461F46002FCC
:1019E800ACD1CEE71C1B0008000000000023014614
:1019F8001A46184600F014B838B5074D074C2C1B8A
:101A0800A41005D0013C55F8043D9847002CF9D1A5
:101A1800BDE8384000F088B8501B00084C1B00088F
:101A28002DE9F047254C2568D5F8484106468846F3
:101A380092469946C4B360681F2817DC431C76B1E8
:101A480004EB80050122C5F888A0D4F888118240EB
:101A58001143022EC4F88811C5F808911ED002302F
:101A6800636044F820800020BDE8F087144B03B37E
:101A78004FF4C870AFF300800446D0B1D5F84831B0
:101A8800002780E88800C5F8484138460123C4F893
:101A98008871C4F88C71002EE1D0D1E7D4F88C118C
:101AA8000A43C4F88C21DAE705F5A674C5F848415D
:101AB800C1E74FF0FF30BDE8F08700BF1C1B0008EE
:101AC8000000000048656C6C6F20776F726C6420B2
:101AD800666F726D20454561722025640A0000001A
:101AE800546573743A222563220A0000737464698A
:101AF8006F2E633A20696E637265617365204D418C
:101B0800585F535452494E475F53495A450A0D008E
:101B1800430000002800002000000000F8B500BFC6
:101B2800F8BC08BC9E467047F8B500BFF8BC08BCB6
:041B38009E4670470E
:081B3C00A8E6FF7F0100000094
:081B440009190008AD010008B9
:041B4C008901000803
:101B50000000000000000000010203040102030471
:101B6000060708090000000000000000010203044D
:101B700006070809007A030A000000001403002089
:101B80007C030020E40300200000000000000000AF
:101B90000000000000000000000000000000000045
:101BA000000000000000000000000000181B0008FA
:101BB0000000000000000000000000000000000025
:101BC0000000000000000000000000000000000015
:101BD0000000000000000000000000000000000005
:101BE00000000000000000000000000000000000F5
:101BF00000000000000000000000000000000000E5
:101C000000000000000000000000000000000000D4
:101C100000000000000000000000000000000000C4
:101C200001000000000000000E33CDAB34126DE661
:101C3000ECDE05000B0000000000000000000000CA
:101C40000000000000000000000000000000000094
:101C50000000000000000000000000000000000084
:101C60000000000000000000000000000000000074
:101C70000000000000000000000000000000000064
:041FA00028000020F5
:041FA4000000000039
:04000005080017B127
:00000001FF
