:020000040800F2
:100000000000022061170008A9170008A9170008BE
:10001000A9170008A9170008A91700080000000088
:10002000000000000000000000000000A917000808
:10003000A917000800000000A9170008A917000868
:10004000A9170008A9170008A9170008A917000890
:10005000A9170008A9170008A9170008A917000880
:10006000A9170008A9170008A9170008A917000870
:10007000A9170008A9170008A9170008A917000860
:10008000A9170008A9170008A9170008A917000850
:10009000A9170008A9170008A9170008A917000840
:1000A000A9170008A9170008A9170008A917000830
:1000B000A9170008A9170008A9170008A917000820
:1000C000A9170008A9170008A9170008A917000810
:1000D000A9170008A9170008A9170008610400085B
:1000E000A9170008A9170008A9170008A9170008F0
:1000F000A9170008A9170008A9170008A9170008E0
:10010000A9170008A9170008A9170008A9170008CF
:10011000A9170008A9170008A9170008A9170008BF
:10012000A9170008A9170008A9170008A9170008AF
:10013000A9170008A9170008A9170008A91700089F
:10014000A9170008A9170008A9170008A91700088F
:10015000A9170008A9170008A9170008A91700087F
:10016000A9170008A9170008A9170008A91700086F
:10017000A9170008A9170008A9170008A91700085F
:08018000A9170008A9170008E7
:1001880010B5054C237833B9044B13B10448AFF3C9
:1001980000800123237010BD6004002000000000CF
:1001A800201B00080C4B43B10C480D4910B5AFF3A8
:1001B80000800C48036823B910BD0A48036833B9A6
:1001C8007047094B002BF7D0BDE810401847064B85
:1001D800002BF5D0184700BF00000000201B0008C6
:1001E800640400205C04002000000000154B002B74
:1001F80008BF134B9D46A3F5803A00218B460F4656
:100208001348144A121A01F005FB0F4B002B00D0BB
:1002180098470E4B002B00D098470020002104007F
:100228000D000D48002802D00C4801F0BFFB01F07A
:10023800C9FA2000290001F05BFA01F0B3FA00BF07
:10024800000008000000000000000000000000009E
:1002580060040020B4060020B5190008C119000880
:1002680010B4064C064923780648DBB25A1CD2B2B1
:100278002270C95C5DF8044B00F016BD7C040020B8
:10028800880400200048004010B5064A0648547803
:10029800E4B2631CDBB2537000F00AFD034B18553F
:1002A80010BD00BF7C0400200048004090050020DD
:1002B800034B9A781B789A4200D0D1E7704700BF69
:1002C8007C04002008B58021084800F0B1FD58B131
:1002D800074B99781A78914206D09A781B789A42F7
:1002E80002D0BDE80840BBE708BD00BF0048004099
:1002F8007C040020034A5378D2789B1A013300D03B
:10030800C2E770477C040020034B5878DB78C01A9A
:1003180018BF0120704700BF7C040020044905482D
:10032800CB78DBB25A1CD2B2CA70C05C704700BF2F
:100338007C040020900500200A4A937811785B1A03
:10034800FF2B0DD001330BD010B49378064CDBB2E1
:10035800591CC9B29170E05401205DF8044B7047F4
:10036800002070477C040020880400202DE9F0411B
:10037800012188B04FF4802000F0FCFE324F334E4C
:100388000121022000F0D2FE02A801F0A1F8002409
:1003980001254FF0020802A938464FF40063029382
:1003A8008DF80C808DF80D808DF80E408DF80F506B
:1003B80001F03AF84FF4806302A9384602938DF8A9
:1003C8000C808DF80D808DF80E408DF80F5001F0DF
:1003D8002BF8384607220B2101F0BAF838460722D5
:1003E8000A2101F0B5F84FF416520C23304604A93F
:1003F8000492ADF81A30ADF81440ADF81640ADF8D7
:100408001840ADF81C4000F095FB2946304600F036
:1004180017FC272301A88DF804308DF805408DF8C6
:1004280006408DF8075000F0C9FA2A46304640F2D7
:10043800266100F0DFFC2A46304640F2255100F0E4
:10044800D9FC08B0BDE8F081000402400048004033
:1004580062B6FFF78BBF00BF08B540F226611148AE
:1004680000F0F0FC78B940F225510E4800F0EAFCA3
:1004780000B908BD0C4A5378D2789B1A01330FD0C3
:10048800BDE8084000E740F22661064800F000FD9C
:10049800054B9A781B789A42E5D0FFF7E1FEE2E730
:1004A80008BD00BF004800407C04002082B00190D5
:1004B800019B5A1E0192002BFAD102B0704700BF6F
:1004C80010B504462046FFF737FF0028FAD010BDC4
:1004D80001700120704700BF0B7810B45BB1024671
:1004E80002F8013B11F8013F141A002BF8D12046FD
:1004F8005DF8044B70471C46F9E700BF70B51E460F
:10050800092E02F1FF33044615D8002BD8BF01206D
:1005180006DD0D46234404F8015B9C42FBD11046DE
:100528000A4BA3FB0623DB0803EB8303A6EB430379
:100538003033237070BD054DA5FB06251A46EB0820
:10054800FFF7DCFF04440130EAE700BFCDCCCCCC98
:10055800F8B5002B04460F4624DB092B1E4602F192
:10056800FF3216DC002A36DD11462546013905F82A
:10057800017BFBD1002B144428DB501C174BA3FB39
:100588000623DB0803EB8303A6EB43033033237016
:10059800F8BD124BA3FB0653DB08FFF7D9FF044451
:1005A8000130EBE713F1090FC3F1000602F1FF3543
:1005B80008DA0A4BA3FB0623DB082A465B42FFF74F
:1005C800C7FFECE7023A002ACEDC00222D2304F80C
:1005D800013B901CD2E70120D0E700BFCDCCCCCCAA
:1005E8002DE9F04182B0551E089E5FEA161E0446AA
:1005F800984620D1002DD8BF012006DD0F4663198B
:1006080004F8017BA342FBD1104606F00F06092E21
:100618000CD9B8F1000F04D15736267002B0BDE8E6
:10062800F0813736267002B0BDE8F081303626708A
:1006380002B0BDE8F081CDF800E02A46FFF7D0FF10
:1006480004440130E1E700BF2DE9F0410F4682B0D4
:100658009846064608B100230370002513785BB15D
:10066800BD4280F09D80252B0ED001323370137867
:1006780001350136002BF3D1AF4240F29180284674
:10068800337002B0BDE8F0815378252B34D0302B7D
:1006980037D0541CA3F13002092A4FF0200138D872
:1006A800002202EB820203EB420214F8013FA3F19D
:1006B8003000303A092802F0FF02F2D910462844E7
:1006C800874238BF7A1BA3F1580338BFD2B2202B18
:1006D8006ED8DFE803F05A6D6D6D6D6D6D6D6D6DE3
:1006E8006D52496D6D6D6D496D6D6D6D6D6D6D6D95
:1006F8006D386D2F6D6D2100337002320135013672
:10070800ACE79378941CA3F13002092A4FF030012A
:10071800C6D900200246D2E7D8F800300093304608
:100728000023FFF75DFF08F104080346621C1E441E
:10073800054493E7D8F800303046FFF7DFFE08F1AC
:1007480004080346F2E7D8F800100B7808F1040E05
:10075800A3B3324602F8013B11F8013F901B002B6E
:10076800F8D1F0460346E1E7D8F800303046FFF705
:10077800EFFE08F104080346D8E7D8F800303370D4
:10078800012308F104081846D0E7D8F80030009390
:1007980030460123FFF724FF08F104080346C5E7A4
:1007A800013D0023284606F8013C02B0BDE8F0816F
:1007B8004FF0FF35284602B0BDE8F081F0461846F4
:1007C800B4E700BF0CB400B583B004AB53F8042BF6
:1007D8000193FFF739FF03B05DF804EB02B07047EF
:1007E80013460A466421FFF72FBF00BF0EB400B5B9
:1007F80082B003AB642153F8042B0193FFF724FF65
:1008080002B05DF804EB03B0704700BF38B50A4B7F
:100818001B689A688A42054602D0DB68994207D16C
:10082800ECB22046FFF788FD0028FAD0284638BDEC
:100838004FF0FF35284638BD2800002070B50A4B18
:1008480004461B6800789E6850B1002503E014F840
:10085800010F013528B13146FFF7D8FF431CF6D107
:1008680070BD284670BD00BF2800002070B5044642
:10087800007858B10E46002503E014F8010F013541
:1008880028B13146FFF7C2FF431CF6D170BD284698
:1008980070BD00BFF0B5174D96460F4606460FCD02
:1008A800A3B06C460FC40FCD0FC42B6823603A4623
:1008B800734609A86421FFF7C7FE632812DC9DF878
:1008C800240058B109AD002403E015F8010F0134E4
:1008D80028B13146FFF79AFF431CF6D1044620465B
:1008E80023B0F0BD044B1B686846D968FFF7BEFF0C
:1008F800FEE700BFF81A000828000020034B1B6819
:100908000A4601469868FFF7C5BF00BF28000020C7
:100918000FB410B5094B82B004AA1B6852F8041B27
:1009280098680192FFF7B6FF0446FFF7CBFC204614
:1009380002B0BDE8104004B0704700BF2800002096
:100948000EB400B582B003AA52F8041B0192FFF757
:10095800A1FF02B05DF804EB03B07047044A0549F3
:100968001368002B08BF0B461844106018467047E0
:1009780084040020B40600204FF0FF30704700BF09
:100988004FF0FF30704700BF4FF400534B6000201A
:10099800704700BF01207047002070470020704753
:1009A80010467047FEE700BF40F0BF60024B40F4BE
:1009B8000030D860704700BF00ED00E0C3785BB935
:1009C800037816485A09203203F01F03012101FA5F
:1009D80003F340F822307047114A70B4D268437864
:1009E800867801780D48D243C2F30222C2F1040589
:1009F800EDB20F24AB4044FA02F23240DBB21343AB
:100A080044181B0101F01F0501224909DBB2AA4065
:100A180084F8003370BC40F82120704700E100E002
:100A280000ED00E021F0604121F07F01014B01431E
:100A38009960704700ED00E029B9054A136923EA77
:100A4800000010617047024B1A6910431861704723
:100A580000ED00E0044A136804280CBF43F00403C7
:100A680023F004031360704710E000E008B52B4B37
:100A7800984219D02A4B984220D02A4B984229D024
:100A8800294B984232D0294B98423BD0284B984268
:100A980000D008BD0121202000F0B4FB0021202057
:100AA800BDE8084000F0AEBB0121102000F0AAFB11
:100AB80000211020BDE8084000F0A4BB01214FF43C
:100AC800003000F093FB00214FF40030BDE80840EF
:100AD80000F08CBB01214FF4802000F087FB00213F
:100AE8004FF48020BDE8084000F080BB01214FF49E
:100AF800002000F07BFB00214FF40020BDE80840F7
:100B080000F074BB01214FF4801000F06FFB00214E
:100B18004FF48010BDE8084000F068BB00100140A9
:100B28000044004000480040004C00400050004095
:100B380000140140028AF0B592B20446C8880D46F6
:100B480022F4405202438989AB882F896E89228218
:100B5800A28922F4B05222F00C023B431204334320
:100B6800120C9BB21343A381A38A9BB223F4407354
:100B78000B4385B0A382684600F066FA1C4B9C4282
:100B880028D003F580639C4224D0029AA389A189C6
:100B980013F4004F2B68174D02EB820214BF5B0061
:100BA8009B0002EB8202B2FBF3F0A5FB0032520974
:100BB800642303FB120310010A040DD41B01323312
:100BC800A5FB0323C3F3431343EA000292B2228135
:100BD80005B0F0BD039AD9E7D9003231A5FB013140
:100BE800C1F34212024392B2228105B0F0BD00BFA8
:100BF800001001401F85EB5100234FF416510C22C1
:100C0800016042818380C38003818381704700BF74
:100C180030B40B884D888C88028AC9882B432343BB
:100C28000B4392B29BB222F470621343038230BC2E
:100C3800704700BF0023038043808380C3807047D0
:100C4800838929B923F400531B041B0C8381704743
:100C58009BB243F400538381704700BF038B03F4B6
:100C68007F430383038B9BB219430183704700BF03
:100C7800838919B9C3F30E03838170476FEA43432D
:100C88006FEA53439BB28381704700BF838A29B9B7
:100C980023F400631B041B0C838270479BB243F44C
:100CA80000638382704700BFC1F3080181807047E9
:100CB8008088C0F308007047038A23F00F031B04E1
:100CC8001B0C0382038A9BB219430182704700BF41
:100CD800838929B923F002031B041B0C8381704705
:100CE8009BB243F002038381704700BF838923F4DA
:100CF80000631B041B0C838183899BB21943818188
:100D0800704700BF038A23F020031B041B0C0382D7
:100D1800038A9BB219430182704700BF038A29B92D
:100D280023F480431B041B0C038270479BB243F4DB
:100D380080430382704700BF83899BB243F001035D
:100D480083817047838A29B923F008031B041B0C8D
:100D5800838270479BB243F008038382704700BFC9
:100D6800038BDBB20383038B9BB243EA012101832C
:100D7800704700BF838A29B923F020031B041B0C8A
:100D8800838270479BB243F020038382704700BF81
:100D9800838A29B923F010031B041B0C8382704734
:100DA8009BB243F010038382704700BF838A23F00D
:100DB80004031B041B0C8382838A9BB21943818220
:100DC800704700BF838A29B923F002031B041B0C58
:100DD800838270479BB243F002038382704700BF4F
:100DE800838A9BB21AB923EA0101818270471943A9
:100DF8008182704710B401F01F04C1F3421101232E
:100E0800012903FA04F311D002290CBF1030143061
:100E180032B902685DF8044B22EA030303607047A5
:100E280002685DF8044B1343036070470C30EFE72A
:100E38000388194214BF012000207047C94389B2B2
:100E480001807047C1F3421210B4012301F01F045E
:100E5800012A03FA04F317D0022A0CBF028A828AF5
:100E680092B21340028892B253B10123090A03FADD
:100E780001F10A4214BF184600205DF8044B704780
:100E880018465DF8044B7047828992B21340E9E72F
:100E9800090A012303FA01F1C94389B201807047A5
:100EA8000A4B0B481A68002142F001021A60996047
:100EB8001A6822F0847222F480321A6058601A6824
:100EC80022F480221A60D960704700BF00380240BF
:100ED80010300024024B00221A701870704700BFAF
:100EE8000238024082B000230A4A019302E0B3F5B7
:100EF800A06F08D0136813F4003F019B03F10103AE
:100F08000193019BF3D0034B1868C0F3404002B033
:100F1800704700BF00380240034A136823F0F80303
:100F280043EAC0001060704700380240014B186067
:100F3800704700BF00004742064B002201281A7084
:100F48001A7005D0042802D105221A70704770471C
:100F58001870704770380240014B1860704700BF26
:100F6800800E474230B4029C064D40EA04605B089C
:100F78000843013B40EA821040EA0340686030BC05
:100F8800704700BF00380240014B1860704700BF2F
:100F9800600047420907034B41EA8011C3F88410F7
:100FA800704700BF00380240014B1860704700BF0F
:100FB80068004742014B1860704700BF4C00474229
:100FC800034A936823F0EC63194301439160704727
:100FD80000380240034A936823F0784319430143D9
:100FE8009160704700380240034A936823F0030376
:100FF80018439060704700BF00380240024B986861
:1010080000F00C00704700BF00380240034A9368A4
:1010180023F0F00318439060704700BF0038024087
:10102800034A936823F4E05318439060704700BF65
:1010380000380240034A936823F4604343EAC0003F
:1010480090607047003802401F4A936803F00C0311
:10105800042B10B41BD0082B1CD01C4B03601A4A5D
:101068001B499468C4F303140C5DE340436094681F
:10107800C4F382240C5D23FA04F4846092685DF85A
:10108800044BC2F342328A5CD340C3607047114BB1
:101098000360E4E75468516852686302C2F3881237
:1010A80001F03F014CBF0B4B084BB3FBF1F303FBC3
:1010B80002F3054A5268C2F3014201325200B3FBFF
:1010C800F2F30360CBE700BF003802400024F400CD
:1010D8000400002040787D0100F44073B3F5407FA0
:1010E80009D108498A6820F0704322F4F81223F4E1
:1010F800407313438B60034B1A6FC0F30B0010430C
:101108001867704700380240014B1860704700BFED
:101118003C0E4742014B1860704700BF400E4742E3
:10112800014B1860704700BF5C014742044A136BCB
:1011380019B923EA00001063704718431063704719
:1011480000380240044A536B19B923EA000050637F
:10115800704718435063704700380240044A936B45
:1011680019B923EA000090637047184390637047E9
:1011780000380240044A136C19B923EA00001064CD
:10118800704718431064704700380240044A536C93
:1011980019B923EA00005064704718435064704737
:1011A80000380240044A136919B923EA00001061A3
:1011B800704718431061704700380240044A536969
:1011C80019B923EA0000506170471843506170470D
:1011D80000380240044A936919B923EA0000906173
:1011E800704718439061704700380240044A136AF8
:1011F80019B923EA0000106270471843106270475B
:1012080000380240044A536A19B923EA00005062C0
:10121800704718435062704700380240044A136D03
:1012280019B923EA00001065704718431065704724
:1012380000380240044A536D19B923EA000050658A
:10124800704718435065704700380240044A936D50
:1012580019B923EA000090657047184390657047F4
:1012680000380240044A136E19B923EA00001066D8
:10127800704718431066704700380240044A536E9E
:1012880019B923EA00005066704718435066704742
:1012980000380240044A137819B923EA0000107094
:1012A80070471843107070470D3802404309012BEE
:1012B8000BD0022B094B0CBF1B6F5B6F00F01F009C
:1012C80023FA00F000F001007047044B1B6800F09F
:1012D8001F0023FA00F000F00100704700380240B8
:1012E800024A536F43F080735367704700380240D7
:1012F800034BDB68184214BF01200020704700BF71
:1013080000380240014B1870704700BF0E38024089
:1013180008B53C4B984224D03B4B98422BD03B4BD2
:10132800984232D03A4B984239D03A4B984240D002
:10133800394B984247D0394B98424ED0384B984257
:1013480055D0384B984200D008BD01214FF4807029
:10135800FFF728FF00214FF48070BDE80840FFF731
:1013680021BF01210846FFF71DFF00210120BDE82C
:101378000840FFF717BF01210220FFF713FF0021E4
:101388000220BDE80840FFF70DBF01210420FFF748
:1013980009FF00210420BDE80840FFF703BF012131
:1013A8000820FFF7FFFE00210820BDE80840FFF7EE
:1013B800F9BE01211020FFF7F5FE00211020BDE83D
:1013C8000840FFF7EFBE01212020FFF7EBFE0021C8
:1013D8002020BDE80840FFF7E5BE01214020FFF7C7
:1013E800E1FE00214020BDE80840FFF7DBBE0121F7
:1013F8008020FFF7D7FE00218020BDE80840FFF7D6
:10140800D1BE00BF000002400004024000080240B4
:10141800000C024000100240001402400018024074
:10142800001C02400020024000222DE9F04713462C
:10143800D1F800E001274FF0030C04E00133102B32
:1014480002F1020229D007FA03F434EA0E05F5D1B5
:10145800D0F800800E790CFA02F5ED4308EA050889
:10146800C0F80080D0F800A006FA02F9013E49EA67
:101478000A09012E0CFA02F8C0F800900FD9C568C5
:10148800CC7925EA0805C560C568944001332C432A
:10149800102BC46002F10202D5D1BDE8F087D0F864
:1014A80008904E7905EA09058560D0F808908D798D
:1014B800964046EA09068660466826EA04044460BF
:1014C800466805FA03F4A4B234434460D7E700BF82
:1014D80000234FF6FF720260037143718371C37179
:1014E800704700BF82B04FF480330193019B0B43D8
:1014F8000193019BC361C161019BC361C3690193EE
:10150800C369019302B070470369194214BF0120EF
:1015180000207047006980B2704700BF43691942D4
:1015280014BF012000207047406980B2704700BF97
:1015380001837047418370470AB94183704701832B
:10154800704700BF41617047436959404161704726
:10155800CB0800EB830001F0070110B4036A89008F
:101568000F248C4023EA04030362036A5DF8044BEA
:1015780002FA01F119430162704700BF501B0008CD
:10158800000000205C04002060040020B406002055
:101598003749384BD1F88820374842F47002C1F8EF
:1015A80088201A68002142F001021A6099601A68BE
:1015B80022F0847222F480321A6058601A6882B06D
:1015C80022F480221A60D960009101911A6842F4CD
:1015D80080321A601A4603E0009BB3F5A06F09D069
:1015E800136803F400330193009B01330093019BBC
:1015F800002BF1D01F4B1B6813F4003318BF0123D5
:101608000193019B012B05D0194B4FF000629A60A2
:1016180002B07047174B19491A6C194842F08052AA
:101628001A640A6842F480420A609A6842F090029A
:101638009A609A689A609A689A6058601A6842F044
:1016480080721A601A689201FCD50E49094A4FF453
:10165800C0600860996821F003019960996841F0B9
:1016680002019960936803F00C03082BFAD1CBE7C9
:1016780000ED00E000380240103000240070004007
:1016880019544007003C0240154A936803F00C03C4
:10169800042B23D0082B09D0124B114A1249926807
:1016A800C2F303128A5CD3400B61704750685168DB
:1016B80052684302C2F3881201F03F014CBF0B4B42
:1016C800084BB3FBF1F303FB02F3054A5268C2F37C
:1016D800014201325200B3FBF2F3DEE7034BDCE7D1
:1016E800003802400024F4001400002040787D01F6
:1016F80080B5FFF74DFF62B6FEF738FE01210820DE
:10170800FFF714FD104C114B0022194620464FF4E8
:101718007047012603251F601E715D719A71DA7189
:10172800FFF782FE0A48FFF7F3F8636983F4804302
:10173800636121464A69074B82F400424A611A46AE
:10174800013B002AFBD1F5E7000C02408805002088
:10175800E01A000840420F00002103E00B4B5B58E1
:10176800435004310A480B4B42189A42F6D30A4AAE
:1017780002E0002342F8043B084B9A42F9D3FFF7F2
:1017880007FF00F01FF8FFF7B3FF7047501B000872
:10179800000000205C04002060040020B406002043
:1017A800FEE7000008B50021044600F08BF8044B62
:1017B8001868C36B03B19847204600F0BBF900BF17
:1017C8001C1B000870B50F4E0F4D761BB61018BFC6
:1017D800002405D0013455F8043B9847A642F9D1B6
:1017E8000A4E0B4D761B00F099F9B61018BF00246D
:1017F80006D0013455F8043B9847A642F9D170BD8C
:1018080070BD00BF441B0008441B00084C1B0008A7
:10181800441B000870B4860746D0541E002A41D0E5
:10182800CAB2034602E014F1FF343BD303F8012B9C
:101838009D07F8D1032C2ED9CDB245EA05250F2CEA
:1018480045EA054519D903F110022646103E0F2E28
:1018580042F8105C42F80C5C42F8085C42F8045C00
:1018680002F11002F2D8A4F1100222F00F0204F0E3
:101878000F041032032C13440DD91E462246043A95
:10188800032A46F8045BFAD8221F22F00302043226
:10189800134404F003042CB1C9B21C4403F8011B1F
:1018A8009C42FBD170BC704714460346C2E700BF98
:1018B800024B13B1024800F079B8704700000000ED
:1018C800C11900082DE9F04F354B85B00E4601903F
:1018D800186800F095F8334B1B68029303F5A4735E
:1018E8000393029BD3F8487137B3DDF80CA04FF08F
:1018F8000109D3467C68651E0ED4013407EB8404C5
:101908004FF00008FEB1D4F800319E421BD0013DD3
:101918006B1CA4F10404F5D1234B6BB17B68002B3D
:1019280039D13B6843B13846CBF80030AFF300807B
:10193800DBF80070002FDDD1194B186805B0BDE841
:10194800F04F00F065B87B682268013BAB420CBFE2
:101958007D60C4F80080002AD9D0D7F88811D7F85C
:1019680004A009FA05F30B420FD0D7F88C110B42EB
:101978000DD1D4F88010019890477B685345B0D1B9
:10198800DBF80030BB42C2D0ABE79047F5E7D4F8AC
:1019980080009047F1E7BB463F68002FAAD1CBE70C
:1019A800580400201C1B000800000000002301460A
:1019B8001A46184600F02EB838B50A4C0A4D641B72
:1019C800A4100AD004F18043013B05EB8305013CD8
:1019D80055F804399847002CF9D1BDE8384000F093
:1019E800A3B800BF501B00084C1B0008704700BF7D
:1019F800704700BF704700BF704700BF704700BF07
:101A0800704700BF0120704701207047704700BF32
:101A1800704700BF2DE9F8432C4D064628689846C4
:101A28000F469146FFF7ECFF294B1C68D4F8483164
:101A3800002B3ED05A681F2A1CDC02F1010E76B139
:101A480003EB82010124C1F88890D3F888019440FF
:101A58002043022EC3F88801C1F8088123D002323E
:101A6800C3F804E0286843F82270FFF7D1FF00208C
:101A7800BDE8F883174B0BB34FF4C870AFF3008081
:101A88000346D8B1D4F848210260002141600A46D3
:101A9800C4F848014FF0010EC0F88811C0F88C1145
:101AA800002EDCD0CCE7D3F88C110C43C3F88C4162
:101AB800D5E704F5A673C4F84831BBE72868FFF7F3
:101AC800A7FF4FF0FF30BDE8F88300BF580400209F
:101AD8001C1B00080000000048656C6C6F20776FC5
:101AE800726C6420666F726D20454561720000005B
:101AF800737464696F2E633A20696E6372656173EB
:101B080065204D41585F535452494E475F53495AD7
:101B1800450A0D003000002000000000F8B500BFA5
:101B2800F8BC08BC9E467047F8B500BFF8BC08BCB6
:041B38009E4670470E
:081B3C00B8E6FF7F0100000084
:081B4400B9180008AD0100080A
:041B4C008901000803
:101B50000000000000000000010203040102030471
:101B6000060708090000000000000000010203044D
:101B700006070809007A030A300000200000000070
:101B8000000000001C03002084030020EC03002060
:101B90000000000000000000000000000000000045
:101BA0000000000000000000000000000000000035
:101BB0000000000000000000000000000000000025
:101BC0000000000000000000000000000000000015
:101BD0000000000000000000000000000000000005
:101BE00000000000000000000000000000000000F5
:101BF00000000000000000000000000000000000E5
:101C000000000000000000000000000000000000D4
:101C100000000000000000000000000000000000C4
:101C200000000000000000000100000000000000B3
:101C30000E33CDAB34126DE6ECDE05000B00000078
:101C40000000000000000000000000000000000094
:101C50000000000000000000000000000000000084
:101C60000000000000000000000000000000000074
:101C70000000000000000000000000000000000064
:0C1FA0000000000000000000900600207F
:041FAC000000000031
:040000050800176177
:00000001FF
